{
  "_format": "hh-sol-artifact-1",
  "contractName": "TicketNFT",
  "sourceName": "contracts/TicketNFT.sol",
  "abi": [
    {
      "inputs": [],
      "stateMutability": "nonpayable",
      "type": "constructor"
    },
    {
      "inputs": [
        {
          "internalType": "uint256",
          "name": "numerator",
          "type": "uint256"
        },
        {
          "internalType": "uint256",
          "name": "denominator",
          "type": "uint256"
        }
      ],
      "name": "ERC2981InvalidDefaultRoyalty",
      "type": "error"
    },
    {
      "inputs": [
        {
          "internalType": "address",
          "name": "receiver",
          "type": "address"
        }
      ],
      "name": "ERC2981InvalidDefaultRoyaltyReceiver",
      "type": "error"
    },
    {
      "inputs": [
        {
          "internalType": "uint256",
          "name": "tokenId",
          "type": "uint256"
        },
        {
          "internalType": "uint256",
          "name": "numerator",
          "type": "uint256"
        },
        {
          "internalType": "uint256",
          "name": "denominator",
          "type": "uint256"
        }
      ],
      "name": "ERC2981InvalidTokenRoyalty",
      "type": "error"
    },
    {
      "inputs": [
        {
          "internalType": "uint256",
          "name": "tokenId",
          "type": "uint256"
        },
        {
          "internalType": "address",
          "name": "receiver",
          "type": "address"
        }
      ],
      "name": "ERC2981InvalidTokenRoyaltyReceiver",
      "type": "error"
    },
    {
      "inputs": [
        {
          "internalType": "address",
          "name": "sender",
          "type": "address"
        },
        {
          "internalType": "uint256",
          "name": "tokenId",
          "type": "uint256"
        },
        {
          "internalType": "address",
          "name": "owner",
          "type": "address"
        }
      ],
      "name": "ERC721IncorrectOwner",
      "type": "error"
    },
    {
      "inputs": [
        {
          "internalType": "address",
          "name": "operator",
          "type": "address"
        },
        {
          "internalType": "uint256",
          "name": "tokenId",
          "type": "uint256"
        }
      ],
      "name": "ERC721InsufficientApproval",
      "type": "error"
    },
    {
      "inputs": [
        {
          "internalType": "address",
          "name": "approver",
          "type": "address"
        }
      ],
      "name": "ERC721InvalidApprover",
      "type": "error"
    },
    {
      "inputs": [
        {
          "internalType": "address",
          "name": "operator",
          "type": "address"
        }
      ],
      "name": "ERC721InvalidOperator",
      "type": "error"
    },
    {
      "inputs": [
        {
          "internalType": "address",
          "name": "owner",
          "type": "address"
        }
      ],
      "name": "ERC721InvalidOwner",
      "type": "error"
    },
    {
      "inputs": [
        {
          "internalType": "address",
          "name": "receiver",
          "type": "address"
        }
      ],
      "name": "ERC721InvalidReceiver",
      "type": "error"
    },
    {
      "inputs": [
        {
          "internalType": "address",
          "name": "sender",
          "type": "address"
        }
      ],
      "name": "ERC721InvalidSender",
      "type": "error"
    },
    {
      "inputs": [
        {
          "internalType": "uint256",
          "name": "tokenId",
          "type": "uint256"
        }
      ],
      "name": "ERC721NonexistentToken",
      "type": "error"
    },
    {
      "inputs": [
        {
          "internalType": "address",
          "name": "owner",
          "type": "address"
        }
      ],
      "name": "OwnableInvalidOwner",
      "type": "error"
    },
    {
      "inputs": [
        {
          "internalType": "address",
          "name": "account",
          "type": "address"
        }
      ],
      "name": "OwnableUnauthorizedAccount",
      "type": "error"
    },
    {
      "inputs": [],
      "name": "ReentrancyGuardReentrantCall",
      "type": "error"
    },
    {
      "anonymous": false,
      "inputs": [
        {
          "indexed": true,
          "internalType": "address",
          "name": "owner",
          "type": "address"
        },
        {
          "indexed": true,
          "internalType": "address",
          "name": "approved",
          "type": "address"
        },
        {
          "indexed": true,
          "internalType": "uint256",
          "name": "tokenId",
          "type": "uint256"
        }
      ],
      "name": "Approval",
      "type": "event"
    },
    {
      "anonymous": false,
      "inputs": [
        {
          "indexed": true,
          "internalType": "address",
          "name": "owner",
          "type": "address"
        },
        {
          "indexed": true,
          "internalType": "address",
          "name": "operator",
          "type": "address"
        },
        {
          "indexed": false,
          "internalType": "bool",
          "name": "approved",
          "type": "bool"
        }
      ],
      "name": "ApprovalForAll",
      "type": "event"
    },
    {
      "anonymous": false,
      "inputs": [
        {
          "indexed": false,
          "internalType": "uint256",
          "name": "_fromTokenId",
          "type": "uint256"
        },
        {
          "indexed": false,
          "internalType": "uint256",
          "name": "_toTokenId",
          "type": "uint256"
        }
      ],
      "name": "BatchMetadataUpdate",
      "type": "event"
    },
    {
      "anonymous": false,
      "inputs": [
        {
          "indexed": true,
          "internalType": "uint256",
          "name": "eventId",
          "type": "uint256"
        },
        {
          "indexed": false,
          "internalType": "string",
          "name": "name",
          "type": "string"
        },
        {
          "indexed": false,
          "internalType": "address",
          "name": "organizer",
          "type": "address"
        }
      ],
      "name": "EventCreated",
      "type": "event"
    },
    {
      "anonymous": false,
      "inputs": [
        {
          "indexed": false,
          "internalType": "uint256",
          "name": "_tokenId",
          "type": "uint256"
        }
      ],
      "name": "MetadataUpdate",
      "type": "event"
    },
    {
      "anonymous": false,
      "inputs": [
        {
          "indexed": true,
          "internalType": "address",
          "name": "previousOwner",
          "type": "address"
        },
        {
          "indexed": true,
          "internalType": "address",
          "name": "newOwner",
          "type": "address"
        }
      ],
      "name": "OwnershipTransferred",
      "type": "event"
    },
    {
      "anonymous": false,
      "inputs": [
        {
          "indexed": true,
          "internalType": "uint256",
          "name": "tokenId",
          "type": "uint256"
        },
        {
          "indexed": true,
          "internalType": "uint256",
          "name": "eventId",
          "type": "uint256"
        },
        {
          "indexed": false,
          "internalType": "address",
          "name": "buyer",
          "type": "address"
        }
      ],
      "name": "TicketMinted",
      "type": "event"
    },
    {
      "anonymous": false,
      "inputs": [
        {
          "indexed": true,
          "internalType": "uint256",
          "name": "tokenId",
          "type": "uint256"
        }
      ],
      "name": "TicketUsed",
      "type": "event"
    },
    {
      "anonymous": false,
      "inputs": [
        {
          "indexed": true,
          "internalType": "address",
          "name": "from",
          "type": "address"
        },
        {
          "indexed": true,
          "internalType": "address",
          "name": "to",
          "type": "address"
        },
        {
          "indexed": true,
          "internalType": "uint256",
          "name": "tokenId",
          "type": "uint256"
        }
      ],
      "name": "Transfer",
      "type": "event"
    },
    {
      "inputs": [
        {
          "internalType": "address",
          "name": "to",
          "type": "address"
        },
        {
          "internalType": "uint256",
          "name": "tokenId",
          "type": "uint256"
        }
      ],
      "name": "approve",
      "outputs": [],
      "stateMutability": "nonpayable",
      "type": "function"
    },
    {
      "inputs": [
        {
          "internalType": "address",
          "name": "owner",
          "type": "address"
        }
      ],
      "name": "balanceOf",
      "outputs": [
        {
          "internalType": "uint256",
          "name": "",
          "type": "uint256"
        }
      ],
      "stateMutability": "view",
      "type": "function"
    },
    {
      "inputs": [
        {
          "internalType": "string",
          "name": "_name",
          "type": "string"
        },
        {
          "internalType": "string",
          "name": "_date",
          "type": "string"
        },
        {
          "internalType": "string",
          "name": "_venue",
          "type": "string"
        },
        {
          "internalType": "uint256",
          "name": "_price",
          "type": "uint256"
        },
        {
          "internalType": "uint256",
          "name": "_maxSupply",
          "type": "uint256"
        },
        {
          "internalType": "uint256",
          "name": "_royaltyPercent",
          "type": "uint256"
        },
        {
          "internalType": "string",
          "name": "_metadataURI",
          "type": "string"
        }
      ],
      "name": "createEvent",
      "outputs": [
        {
          "internalType": "uint256",
          "name": "",
          "type": "uint256"
        }
      ],
      "stateMutability": "nonpayable",
      "type": "function"
    },
    {
      "inputs": [],
      "name": "eventCount",
      "outputs": [
        {
          "internalType": "uint256",
          "name": "",
          "type": "uint256"
        }
      ],
      "stateMutability": "view",
      "type": "function"
    },
    {
      "inputs": [
        {
          "internalType": "uint256",
          "name": "",
          "type": "uint256"
        }
      ],
      "name": "events",
      "outputs": [
        {
          "internalType": "string",
          "name": "name",
          "type": "string"
        },
        {
          "internalType": "string",
          "name": "date",
          "type": "string"
        },
        {
          "internalType": "string",
          "name": "venue",
          "type": "string"
        },
        {
          "internalType": "uint256",
          "name": "price",
          "type": "uint256"
        },
        {
          "internalType": "uint256",
          "name": "maxSupply",
          "type": "uint256"
        },
        {
          "internalType": "uint256",
          "name": "minted",
          "type": "uint256"
        },
        {
          "internalType": "bool",
          "name": "active",
          "type": "bool"
        },
        {
          "internalType": "address",
          "name": "organizer",
          "type": "address"
        },
        {
          "internalType": "uint256",
          "name": "royaltyPercent",
          "type": "uint256"
        },
        {
          "internalType": "string",
          "name": "metadataURI",
          "type": "string"
        }
      ],
      "stateMutability": "view",
      "type": "function"
    },
    {
      "inputs": [],
      "name": "getAllEvents",
      "outputs": [
        {
          "components": [
            {
              "internalType": "uint256",
              "name": "id",
              "type": "uint256"
            },
            {
              "internalType": "string",
              "name": "name",
              "type": "string"
            },
            {
              "internalType": "string",
              "name": "date",
              "type": "string"
            },
            {
              "internalType": "string",
              "name": "venue",
              "type": "string"
            },
            {
              "internalType": "uint256",
              "name": "price",
              "type": "uint256"
            },
            {
              "internalType": "uint256",
              "name": "maxSupply",
              "type": "uint256"
            },
            {
              "internalType": "uint256",
              "name": "minted",
              "type": "uint256"
            },
            {
              "internalType": "bool",
              "name": "active",
              "type": "bool"
            },
            {
              "internalType": "address",
              "name": "organizer",
              "type": "address"
            },
            {
              "internalType": "uint256",
              "name": "royaltyPercent",
              "type": "uint256"
            },
            {
              "internalType": "string",
              "name": "metadataURI",
              "type": "string"
            }
          ],
          "internalType": "struct TicketNFT.EventView[]",
          "name": "",
          "type": "tuple[]"
        }
      ],
      "stateMutability": "view",
      "type": "function"
    },
    {
      "inputs": [
        {
          "internalType": "uint256",
          "name": "tokenId",
          "type": "uint256"
        }
      ],
      "name": "getApproved",
      "outputs": [
        {
          "internalType": "address",
          "name": "",
          "type": "address"
        }
      ],
      "stateMutability": "view",
      "type": "function"
    },
    {
      "inputs": [
        {
          "internalType": "uint256",
          "name": "_eventId",
          "type": "uint256"
        }
      ],
      "name": "getEventDetails",
      "outputs": [
        {
          "components": [
            {
              "internalType": "string",
              "name": "name",
              "type": "string"
            },
            {
              "internalType": "string",
              "name": "date",
              "type": "string"
            },
            {
              "internalType": "string",
              "name": "venue",
              "type": "string"
            },
            {
              "internalType": "uint256",
              "name": "price",
              "type": "uint256"
            },
            {
              "internalType": "uint256",
              "name": "maxSupply",
              "type": "uint256"
            },
            {
              "internalType": "uint256",
              "name": "minted",
              "type": "uint256"
            },
            {
              "internalType": "bool",
              "name": "active",
              "type": "bool"
            },
            {
              "internalType": "address",
              "name": "organizer",
              "type": "address"
            },
            {
              "internalType": "uint256",
              "name": "royaltyPercent",
              "type": "uint256"
            },
            {
              "internalType": "string",
              "name": "metadataURI",
              "type": "string"
            }
          ],
          "internalType": "struct TicketNFT.Event",
          "name": "",
          "type": "tuple"
        }
      ],
      "stateMutability": "view",
      "type": "function"
    },
    {
      "inputs": [
        {
          "internalType": "uint256",
          "name": "_tokenId",
          "type": "uint256"
        }
      ],
      "name": "getTicket",
      "outputs": [
        {
          "components": [
            {
              "internalType": "uint256",
              "name": "eventId",
              "type": "uint256"
            },
            {
              "internalType": "string",
              "name": "tier",
              "type": "string"
            },
            {
              "internalType": "address",
              "name": "originalOwner",
              "type": "address"
            },
            {
              "internalType": "bool",
              "name": "used",
              "type": "bool"
            }
          ],
          "internalType": "struct TicketNFT.Ticket",
          "name": "",
          "type": "tuple"
        }
      ],
      "stateMutability": "view",
      "type": "function"
    },
    {
      "inputs": [
        {
          "internalType": "address",
          "name": "_owner",
          "type": "address"
        }
      ],
      "name": "getTicketsByOwner",
      "outputs": [
        {
          "internalType": "uint256[]",
          "name": "",
          "type": "uint256[]"
        }
      ],
      "stateMutability": "view",
      "type": "function"
    },
    {
      "inputs": [
        {
          "internalType": "address",
          "name": "owner",
          "type": "address"
        },
        {
          "internalType": "address",
          "name": "operator",
          "type": "address"
        }
      ],
      "name": "isApprovedForAll",
      "outputs": [
        {
          "internalType": "bool",
          "name": "",
          "type": "bool"
        }
      ],
      "stateMutability": "view",
      "type": "function"
    },
    {
      "inputs": [
        {
          "internalType": "uint256",
          "name": "_eventId",
          "type": "uint256"
        },
        {
          "internalType": "string",
          "name": "_tier",
          "type": "string"
        },
        {
          "internalType": "string",
          "name": "_tokenURI",
          "type": "string"
        }
      ],
      "name": "mintTicket",
      "outputs": [
        {
          "internalType": "uint256",
          "name": "",
          "type": "uint256"
        }
      ],
      "stateMutability": "payable",
      "type": "function"
    },
    {
      "inputs": [
        {
          "internalType": "uint256",
          "name": "",
          "type": "uint256"
        },
        {
          "internalType": "address",
          "name": "",
          "type": "address"
        }
      ],
      "name": "mintedPerWallet",
      "outputs": [
        {
          "internalType": "uint256",
          "name": "",
          "type": "uint256"
        }
      ],
      "stateMutability": "view",
      "type": "function"
    },
    {
      "inputs": [],
      "name": "name",
      "outputs": [
        {
          "internalType": "string",
          "name": "",
          "type": "string"
        }
      ],
      "stateMutability": "view",
      "type": "function"
    },
    {
      "inputs": [],
      "name": "owner",
      "outputs": [
        {
          "internalType": "address",
          "name": "",
          "type": "address"
        }
      ],
      "stateMutability": "view",
      "type": "function"
    },
    {
      "inputs": [
        {
          "internalType": "uint256",
          "name": "tokenId",
          "type": "uint256"
        }
      ],
      "name": "ownerOf",
      "outputs": [
        {
          "internalType": "address",
          "name": "",
          "type": "address"
        }
      ],
      "stateMutability": "view",
      "type": "function"
    },
    {
      "inputs": [],
      "name": "platformFee",
      "outputs": [
        {
          "internalType": "uint256",
          "name": "",
          "type": "uint256"
        }
      ],
      "stateMutability": "view",
      "type": "function"
    },
    {
      "inputs": [],
      "name": "renounceOwnership",
      "outputs": [],
      "stateMutability": "nonpayable",
      "type": "function"
    },
    {
      "inputs": [
        {
          "internalType": "uint256",
          "name": "tokenId",
          "type": "uint256"
        },
        {
          "internalType": "uint256",
          "name": "salePrice",
          "type": "uint256"
        }
      ],
      "name": "royaltyInfo",
      "outputs": [
        {
          "internalType": "address",
          "name": "receiver",
          "type": "address"
        },
        {
          "internalType": "uint256",
          "name": "amount",
          "type": "uint256"
        }
      ],
      "stateMutability": "view",
      "type": "function"
    },
    {
      "inputs": [
        {
          "internalType": "address",
          "name": "from",
          "type": "address"
        },
        {
          "internalType": "address",
          "name": "to",
          "type": "address"
        },
        {
          "internalType": "uint256",
          "name": "tokenId",
          "type": "uint256"
        }
      ],
      "name": "safeTransferFrom",
      "outputs": [],
      "stateMutability": "nonpayable",
      "type": "function"
    },
    {
      "inputs": [
        {
          "internalType": "address",
          "name": "from",
          "type": "address"
        },
        {
          "internalType": "address",
          "name": "to",
          "type": "address"
        },
        {
          "internalType": "uint256",
          "name": "tokenId",
          "type": "uint256"
        },
        {
          "internalType": "bytes",
          "name": "data",
          "type": "bytes"
        }
      ],
      "name": "safeTransferFrom",
      "outputs": [],
      "stateMutability": "nonpayable",
      "type": "function"
    },
    {
      "inputs": [
        {
          "internalType": "address",
          "name": "operator",
          "type": "address"
        },
        {
          "internalType": "bool",
          "name": "approved",
          "type": "bool"
        }
      ],
      "name": "setApprovalForAll",
      "outputs": [],
      "stateMutability": "nonpayable",
      "type": "function"
    },
    {
      "inputs": [
        {
          "internalType": "uint256",
          "name": "_fee",
          "type": "uint256"
        }
      ],
      "name": "setPlatformFee",
      "outputs": [],
      "stateMutability": "nonpayable",
      "type": "function"
    },
    {
      "inputs": [
        {
          "internalType": "bytes4",
          "name": "interfaceId",
          "type": "bytes4"
        }
      ],
      "name": "supportsInterface",
      "outputs": [
        {
          "internalType": "bool",
          "name": "",
          "type": "bool"
        }
      ],
      "stateMutability": "view",
      "type": "function"
    },
    {
      "inputs": [],
      "name": "symbol",
      "outputs": [
        {
          "internalType": "string",
          "name": "",
          "type": "string"
        }
      ],
      "stateMutability": "view",
      "type": "function"
    },
    {
      "inputs": [
        {
          "internalType": "uint256",
          "name": "",
          "type": "uint256"
        }
      ],
      "name": "tickets",
      "outputs": [
        {
          "internalType": "uint256",
          "name": "eventId",
          "type": "uint256"
        },
        {
          "internalType": "string",
          "name": "tier",
          "type": "string"
        },
        {
          "internalType": "address",
          "name": "originalOwner",
          "type": "address"
        },
        {
          "internalType": "bool",
          "name": "used",
          "type": "bool"
        }
      ],
      "stateMutability": "view",
      "type": "function"
    },
    {
      "inputs": [
        {
          "internalType": "uint256",
          "name": "_eventId",
          "type": "uint256"
        }
      ],
      "name": "toggleEvent",
      "outputs": [],
      "stateMutability": "nonpayable",
      "type": "function"
    },
    {
      "inputs": [
        {
          "internalType": "uint256",
          "name": "tokenId",
          "type": "uint256"
        }
      ],
      "name": "tokenURI",
      "outputs": [
        {
          "internalType": "string",
          "name": "",
          "type": "string"
        }
      ],
      "stateMutability": "view",
      "type": "function"
    },
    {
      "inputs": [
        {
          "internalType": "address",
          "name": "from",
          "type": "address"
        },
        {
          "internalType": "address",
          "name": "to",
          "type": "address"
        },
        {
          "internalType": "uint256",
          "name": "tokenId",
          "type": "uint256"
        }
      ],
      "name": "transferFrom",
      "outputs": [],
      "stateMutability": "nonpayable",
      "type": "function"
    },
    {
      "inputs": [
        {
          "internalType": "address",
          "name": "newOwner",
          "type": "address"
        }
      ],
      "name": "transferOwnership",
      "outputs": [],
      "stateMutability": "nonpayable",
      "type": "function"
    },
    {
      "inputs": [
        {
          "internalType": "uint256",
          "name": "_tokenId",
          "type": "uint256"
        }
      ],
      "name": "useTicket",
      "outputs": [],
      "stateMutability": "nonpayable",
      "type": "function"
    }
  ],
  "bytecode": "0x608060405260fa600f5534801562000015575f80fd5b50336040518060400160405280600d81526020016c151a58dad95d141c9bc8139195609a1b81525060405180604001604052806005815260200164544b50524f60d81b815250815f90816200006b9190620001d0565b5060016200007a8282620001d0565b5050506001600160a01b038116620000ab57604051631e4fbdf760e01b81525f600482015260240160405180910390fd5b620000b681620000e1565b5060017f9b779b17422d0df92223018b32b4d1fa46e071723d6817e2486d003becc55f00556200029c565b600780546001600160a01b038381166001600160a01b0319831681179093556040519116919082907f8be0079c531659141344cd1fd0a4f28419497f9722a3daafe3b4186f6b6457e0905f90a35050565b634e487b7160e01b5f52604160045260245ffd5b600181811c908216806200015b57607f821691505b6020821081036200017a57634e487b7160e01b5f52602260045260245ffd5b50919050565b601f821115620001cb57805f5260205f20601f840160051c81016020851015620001a75750805b601f840160051c820191505b81811015620001c8575f8155600101620001b3565b50505b505050565b81516001600160401b03811115620001ec57620001ec62000132565b6200020481620001fd845462000146565b8462000180565b602080601f8311600181146200023a575f8415620002225750858301515b5f19600386901b1c1916600185901b17855562000294565b5f85815260208120601f198616915b828110156200026a5788860151825594840194600190910190840162000249565b50858210156200028857878501515f19600388901b60f8161c191681555b505060018460011b0185555b505050505050565b61324c80620002aa5f395ff3fe6080604052600436106101d0575f3560e01c806367aa23e2116100fd578063b88d4fde11610092578063e985e9c511610062578063e985e9c514610598578063ec38d5a0146105b7578063f2fde38b146105e3578063f48a8eaf14610602575f80fd5b8063b88d4fde1461051a578063c27a500d14610539578063c87b56dd1461055a578063ddc120af14610579575f80fd5b80637dc379fa116100cd5780637dc379fa1461049e5780638da5cb5b146104ca57806395d89b41146104e7578063a22cb465146104fb575f80fd5b806367aa23e21461042a57806370a0823114610456578063715018a61461047557806371be2e4a14610489575f80fd5b806326232a2e116101735780632b7b7b3d116101435780632b7b7b3d146103aa57806342842e0e146103bd57806350b44712146103dc5780636352211e1461040b575f80fd5b806326232a2e146102f457806326606448146103175780632a55205a146103365780632b54123714610374575f80fd5b8063095ea7b3116101ae578063095ea7b3146102605780630b7914301461028157806312e8e2c3146102b657806323b872dd146102d5575f80fd5b806301ffc9a7146101d457806306fdde0314610208578063081812fc14610229575b5f80fd5b3480156101df575f80fd5b506101f36101ee36600461284d565b610621565b60405190151581526020015b60405180910390f35b348015610213575f80fd5b5061021c610631565b6040516101ff91906128b5565b348015610234575f80fd5b506102486102433660046128c7565b6106c0565b6040516001600160a01b0390911681526020016101ff565b34801561026b575f80fd5b5061027f61027a3660046128f9565b6106e7565b005b34801561028c575f80fd5b506102a061029b3660046128c7565b6106f6565b6040516101ff9a99989796959493929190612921565b3480156102c1575f80fd5b5061027f6102d03660046128c7565b61096f565b3480156102e0575f80fd5b5061027f6102ef3660046129b1565b6109c0565b3480156102ff575f80fd5b50610309600f5481565b6040519081526020016101ff565b348015610322575f80fd5b5061027f6103313660046128c7565b610a49565b348015610341575f80fd5b506103556103503660046129ea565b610b3e565b604080516001600160a01b0390931683526020830191909152016101ff565b34801561037f575f80fd5b5061030961038e366004612a0a565b600d60209081525f928352604080842090915290825290205481565b6103096103b8366004612ad9565b610bc1565b3480156103c8575f80fd5b5061027f6103d73660046129b1565b61100a565b3480156103e7575f80fd5b506103fb6103f63660046128c7565b611029565b6040516101ff9493929190612b41565b348015610416575f80fd5b506102486104253660046128c7565b6110e7565b348015610435575f80fd5b50610449610444366004612b7a565b6110f1565b6040516101ff9190612b93565b348015610461575f80fd5b50610309610470366004612b7a565b6111fd565b348015610480575f80fd5b5061027f611242565b348015610494575f80fd5b50610309600e5481565b3480156104a9575f80fd5b506104bd6104b83660046128c7565b611255565b6040516101ff9190612bd6565b3480156104d5575f80fd5b506007546001600160a01b0316610248565b3480156104f2575f80fd5b5061021c61136a565b348015610506575f80fd5b5061027f610515366004612c28565b611379565b348015610525575f80fd5b5061027f610534366004612c61565b611384565b348015610544575f80fd5b5061054d61139c565b6040516101ff9190612cd8565b348015610565575f80fd5b5061021c6105743660046128c7565b611751565b348015610584575f80fd5b50610309610593366004612dec565b61175c565b3480156105a3575f80fd5b506101f36105b2366004612ead565b611916565b3480156105c2575f80fd5b506105d66105d13660046128c7565b611943565b6040516101ff9190612ed5565b3480156105ee575f80fd5b5061027f6105fd366004612b7a565b611c4c565b34801561060d575f80fd5b5061027f61061c3660046128c7565b611c89565b5f61062b82611d2d565b92915050565b60605f805461063f90612fb1565b80601f016020809104026020016040519081016040528092919081815260200182805461066b90612fb1565b80156106b65780601f1061068d576101008083540402835291602001916106b6565b820191905f5260205f20905b81548152906001019060200180831161069957829003601f168201915b5050505050905090565b5f6106ca82611d51565b505f828152600460205260409020546001600160a01b031661062b565b6106f2828233611d89565b5050565b600b6020525f908152604090208054819061071090612fb1565b80601f016020809104026020016040519081016040528092919081815260200182805461073c90612fb1565b80156107875780601f1061075e57610100808354040283529160200191610787565b820191905f5260205f20905b81548152906001019060200180831161076a57829003601f168201915b50505050509080600101805461079c90612fb1565b80601f01602080910402602001604051908101604052809291908181526020018280546107c890612fb1565b80156108135780601f106107ea57610100808354040283529160200191610813565b820191905f5260205f20905b8154815290600101906020018083116107f657829003601f168201915b50505050509080600201805461082890612fb1565b80601f016020809104026020016040519081016040528092919081815260200182805461085490612fb1565b801561089f5780601f106108765761010080835404028352916020019161089f565b820191905f5260205f20905b81548152906001019060200180831161088257829003601f168201915b505050506003830154600484015460058501546006860154600787015460088801805497989597949650929460ff8316946101009093046001600160a01b03169391929091906108ee90612fb1565b80601f016020809104026020016040519081016040528092919081815260200182805461091a90612fb1565b80156109655780601f1061093c57610100808354040283529160200191610965565b820191905f5260205f20905b81548152906001019060200180831161094857829003601f168201915b505050505090508a565b610977611d96565b6101f48111156109bb5760405162461bcd60e51b815260206004820152600a6024820152694d61782066656520352560b01b60448201526064015b60405180910390fd5b600f55565b6001600160a01b0382166109e957604051633250574960e11b81525f60048201526024016109b2565b5f6109f5838333611dc3565b9050836001600160a01b0316816001600160a01b031614610a43576040516364283d7b60e01b81526001600160a01b03808616600483015260248201849052821660448201526064016109b2565b50505050565b33610a53826110e7565b6001600160a01b031614610a9c5760405162461bcd60e51b815260206004820152601060248201526f2737ba103a34b1b5b2ba1037bbb732b960811b60448201526064016109b2565b5f818152600c6020526040902060020154600160a01b900460ff1615610af35760405162461bcd60e51b815260206004820152600c60248201526b105b1c9958591e481d5cd95960a21b60448201526064016109b2565b5f818152600c6020526040808220600201805460ff60a01b1916600160a01b1790555182917f1f5d53e38fbc5a40092861e993062e74fb6dc7acef58356c7b55aa1afd8b350191a250565b5f82815260096020526040812080548291906001600160a01b03811690600160a01b90046001600160601b031681610b915750506008546001600160a01b03811690600160a01b90046001600160601b03165b5f612710610ba86001600160601b03841689612ffd565b610bb29190613014565b92989297509195505050505050565b5f610bca611eb5565b5f848152600b60205260409020600681015460ff16610c1e5760405162461bcd60e51b815260206004820152601060248201526f4576656e74206e6f742061637469766560801b60448201526064016109b2565b8060040154816005015410610c605760405162461bcd60e51b815260206004820152600860248201526714dbdb19081bdd5d60c21b60448201526064016109b2565b8060030154341015610cab5760405162461bcd60e51b8152602060048201526014602482015273125b9cdd59999a58da595b9d081c185e5b595b9d60621b60448201526064016109b2565b5f858152600d60209081526040808320338452909152902054600511610d065760405162461bcd60e51b815260206004820152601060248201526f13585e080d481c195c881dd85b1b195d60821b60448201526064016109b2565b600a8054905f610d1583613033565b9091555050600a54610d273382611ee3565b610d318185611efc565b610d57818360060160019054906101000a90046001600160a01b03168460070154611f4b565b60408051608081018252878152602080820188815233838501525f60608401819052858152600c9092529290208151815591519091906001820190610d9c908261308f565b506040820151600290910180546060909301511515600160a01b026001600160a81b03199093166001600160a01b0390921691909117919091179055600582018054905f610de983613033565b90915550505f868152600d602090815260408083203384529091528120805491610e1283613033565b91905055505f612710600f5434610e299190612ffd565b610e339190613014565b90505f610e40823461314b565b60068501546040519192505f916101009091046001600160a01b03169083908381818185875af1925050503d805f8114610e95576040519150601f19603f3d011682016040523d82523d5f602084013e610e9a565b606091505b5050905080610eeb5760405162461bcd60e51b815260206004820152601c60248201527f5472616e7366657220746f206f7267616e697a6572206661696c65640000000060448201526064016109b2565b5f610efe6007546001600160a01b031690565b6001600160a01b0316846040515f6040518083038185875af1925050503d805f8114610f45576040519150601f19603f3d011682016040523d82523d5f602084013e610f4a565b606091505b5050905080610f9b5760405162461bcd60e51b815260206004820152601b60248201527f5472616e7366657220746f20706c6174666f726d206661696c6564000000000060448201526064016109b2565b6040513381528a9086907f085ec0eff4bf526b0dd054adffcd8bd8da42126a1133ce302042973f32029fb09060200160405180910390a3509294505050505061100360017f9b779b17422d0df92223018b32b4d1fa46e071723d6817e2486d003becc55f0055565b9392505050565b61102483838360405180602001604052805f815250611384565b505050565b600c6020525f90815260409020805460018201805491929161104a90612fb1565b80601f016020809104026020016040519081016040528092919081815260200182805461107690612fb1565b80156110c15780601f10611098576101008083540402835291602001916110c1565b820191905f5260205f20905b8154815290600101906020018083116110a457829003601f168201915b505050600290930154919250506001600160a01b0381169060ff600160a01b9091041684565b5f61062b82611d51565b600a546060905f60015b828111611142575f818152600260205260409020546001600160a01b03868116911603611130578161112c81613033565b9250505b8061113a81613033565b9150506110fb565b505f8167ffffffffffffffff81111561115d5761115d612a34565b604051908082528060200260200182016040528015611186578160200160208202803683370190505b5090505f60015b8481116111f2575f818152600260205260409020546001600160a01b038881169116036111e057808383815181106111c7576111c761315e565b6020908102919091010152816111dc81613033565b9250505b806111ea81613033565b91505061118d565b509095945050505050565b5f6001600160a01b038216611227576040516322718ad960e21b81525f60048201526024016109b2565b506001600160a01b03165f9081526003602052604090205490565b61124a611d96565b6112535f61200b565b565b61128860405180608001604052805f8152602001606081526020015f6001600160a01b031681526020015f151581525090565b600c5f8381526020019081526020015f206040518060800160405290815f82015481526020016001820180546112bd90612fb1565b80601f01602080910402602001604051908101604052809291908181526020018280546112e990612fb1565b80156113345780601f1061130b57610100808354040283529160200191611334565b820191905f5260205f20905b81548152906001019060200180831161131757829003601f168201915b5050509183525050600291909101546001600160a01b0381166020830152600160a01b900460ff16151560409091015292915050565b60606001805461063f90612fb1565b6106f233838361205c565b61138f8484846109c0565b610a433385858585612123565b600e546060905f8167ffffffffffffffff8111156113bc576113bc612a34565b60405190808252806020026020018201604052801561144e57816020015b61143b6040518061016001604052805f81526020016060815260200160608152602001606081526020015f81526020015f81526020015f81526020015f151581526020015f6001600160a01b031681526020015f8152602001606081525090565b8152602001906001900390816113da5790505b50905060015b82811161174a575f600b5f8381526020019081526020015f209050604051806101600160405280838152602001825f01805461148f90612fb1565b80601f01602080910402602001604051908101604052809291908181526020018280546114bb90612fb1565b80156115065780601f106114dd57610100808354040283529160200191611506565b820191905f5260205f20905b8154815290600101906020018083116114e957829003601f168201915b5050505050815260200182600101805461151f90612fb1565b80601f016020809104026020016040519081016040528092919081815260200182805461154b90612fb1565b80156115965780601f1061156d57610100808354040283529160200191611596565b820191905f5260205f20905b81548152906001019060200180831161157957829003601f168201915b505050505081526020018260020180546115af90612fb1565b80601f01602080910402602001604051908101604052809291908181526020018280546115db90612fb1565b80156116265780601f106115fd57610100808354040283529160200191611626565b820191905f5260205f20905b81548152906001019060200180831161160957829003601f168201915b5050509183525050600383015460208201526004830154604082015260058301546060820152600683015460ff81161515608083015261010090046001600160a01b031660a0820152600783015460c082015260088301805460e09092019161168e90612fb1565b80601f01602080910402602001604051908101604052809291908181526020018280546116ba90612fb1565b80156117055780601f106116dc57610100808354040283529160200191611705565b820191905f5260205f20905b8154815290600101906020018083116116e857829003601f168201915b50505050508152508360018461171b919061314b565b8151811061172b5761172b61315e565b602002602001018190525050808061174290613033565b915050611454565b5092915050565b606061062b8261224b565b5f6103e88311156117a15760405162461bcd60e51b815260206004820152600f60248201526e4d617820726f79616c74792031302560881b60448201526064016109b2565b600e8054905f6117b083613033565b9091555050604080516101408101825289815260208082018a905281830189905260608201889052608082018790525f60a08301819052600160c08401523360e084015261010083018790526101208301869052600e548152600b9091529190912081518190611820908261308f565b5060208201516001820190611835908261308f565b506040820151600282019061184a908261308f565b50606082015160038201556080820151600482015560a0820151600582015560c082015160068201805460e08501516001600160a81b0319909116921515610100600160a81b031916929092176101006001600160a01b039093168302179055820151600782015561012082015160088201906118c7908261308f565b50905050600e547f40fb05b814a900c99fa0a76d919dfdeaf3389540e4ca70f97ba40ca9a38f379789336040516118ff929190613172565b60405180910390a250600e54979650505050505050565b6001600160a01b039182165f90815260056020908152604080832093909416825291909152205460ff1690565b61199e6040518061014001604052806060815260200160608152602001606081526020015f81526020015f81526020015f81526020015f151581526020015f6001600160a01b031681526020015f8152602001606081525090565b5f828152600b602052604090819020815161014081019092528054829082906119c690612fb1565b80601f01602080910402602001604051908101604052809291908181526020018280546119f290612fb1565b8015611a3d5780601f10611a1457610100808354040283529160200191611a3d565b820191905f5260205f20905b815481529060010190602001808311611a2057829003601f168201915b50505050508152602001600182018054611a5690612fb1565b80601f0160208091040260200160405190810160405280929190818152602001828054611a8290612fb1565b8015611acd5780601f10611aa457610100808354040283529160200191611acd565b820191905f5260205f20905b815481529060010190602001808311611ab057829003601f168201915b50505050508152602001600282018054611ae690612fb1565b80601f0160208091040260200160405190810160405280929190818152602001828054611b1290612fb1565b8015611b5d5780601f10611b3457610100808354040283529160200191611b5d565b820191905f5260205f20905b815481529060010190602001808311611b4057829003601f168201915b5050509183525050600382015460208201526004820154604082015260058201546060820152600682015460ff81161515608083015261010090046001600160a01b031660a0820152600782015460c082015260088201805460e090920191611bc590612fb1565b80601f0160208091040260200160405190810160405280929190818152602001828054611bf190612fb1565b8015611c3c5780601f10611c1357610100808354040283529160200191611c3c565b820191905f5260205f20905b815481529060010190602001808311611c1f57829003601f168201915b5050505050815250509050919050565b611c54611d96565b6001600160a01b038116611c7d57604051631e4fbdf760e01b81525f60048201526024016109b2565b611c868161200b565b50565b5f818152600b602052604090206006015461010090046001600160a01b0316331480611cce575033611cc36007546001600160a01b031690565b6001600160a01b0316145b611d0b5760405162461bcd60e51b815260206004820152600e60248201526d139bdd08185d5d1a1bdc9a5e995960921b60448201526064016109b2565b5f908152600b60205260409020600601805460ff19811660ff90911615179055565b5f6001600160e01b0319821663152a902d60e11b148061062b575061062b826122cc565b5f818152600260205260408120546001600160a01b03168061062b57604051637e27328960e01b8152600481018490526024016109b2565b61102483838360016122f0565b6007546001600160a01b031633146112535760405163118cdaa760e01b81523360048201526024016109b2565b5f828152600260205260408120546001600160a01b0390811690831615611def57611def8184866123f4565b6001600160a01b03811615611e2957611e0a5f855f806122f0565b6001600160a01b0381165f90815260036020526040902080545f190190555b6001600160a01b03851615611e57576001600160a01b0385165f908152600360205260409020805460010190555b5f8481526002602052604080822080546001600160a01b0319166001600160a01b0389811691821790925591518793918516917fddf252ad1be2c89b69c2b068fc378daa952ba7f163c4a11628f55a4df523b3ef91a4949350505050565b611ebd612458565b60027f9b779b17422d0df92223018b32b4d1fa46e071723d6817e2486d003becc55f0055565b6106f2828260405180602001604052805f81525061249a565b5f828152600660205260409020611f13828261308f565b506040518281527ff8e1a15aba9398e019f0b49df1a4fde98ee17ae345cb5f6b5e2c27f5033e8ce79060200160405180910390a15050565b6127106001600160601b038216811015611f915760405163dfd1fc1b60e01b8152600481018590526001600160601b0383166024820152604481018290526064016109b2565b6001600160a01b038316611fc157604051634b4f842960e11b8152600481018590525f60248201526044016109b2565b506040805180820182526001600160a01b0393841681526001600160601b0392831660208083019182525f968752600990529190942093519051909116600160a01b029116179055565b600780546001600160a01b038381166001600160a01b0319831681179093556040519116919082907f8be0079c531659141344cd1fd0a4f28419497f9722a3daafe3b4186f6b6457e0905f90a35050565b6001600160a01b0383166120855760405163a9fbf51f60e01b81525f60048201526024016109b2565b6001600160a01b0382166120b757604051630b61174360e31b81526001600160a01b03831660048201526024016109b2565b6001600160a01b038381165f81815260056020908152604080832094871680845294825291829020805460ff191686151590811790915591519182527f17307eab39ab6107e8899845ad3d59bd9653f200f220920489ca2b5937696c31910160405180910390a3505050565b6001600160a01b0383163b1561224457604051630a85bd0160e11b81526001600160a01b0384169063150b7a029061216590889088908790879060040161319b565b6020604051808303815f875af192505050801561219f575060408051601f3d908101601f1916820190925261219c918101906131cd565b60015b612206573d8080156121cc576040519150601f19603f3d011682016040523d82523d5f602084013e6121d1565b606091505b5080515f036121fe57604051633250574960e11b81526001600160a01b03851660048201526024016109b2565b805160208201fd5b6001600160e01b03198116630a85bd0160e11b1461224257604051633250574960e11b81526001600160a01b03851660048201526024016109b2565b505b5050505050565b606061225682611d51565b505f61226c60408051602081019091525f815290565b90505f612278846124b1565b905081515f03612289579392505050565b8051156122bb5781816040516020016122a39291906131e8565b60405160208183030381529060405292505050919050565b6122c484612550565b949350505050565b5f6001600160e01b03198216632483248360e11b148061062b575061062b826125c0565b808061230457506001600160a01b03821615155b156123c5575f61231384611d51565b90506001600160a01b0383161580159061233f5750826001600160a01b0316816001600160a01b031614155b801561235257506123508184611916565b155b1561237b5760405163a9fbf51f60e01b81526001600160a01b03841660048201526024016109b2565b81156123c35783856001600160a01b0316826001600160a01b03167f8c5be1e5ebec7d5bd14f71427d1e84f3dd0314c0f7b2291e5b200ac8c7c3b92560405160405180910390a45b505b50505f90815260046020526040902080546001600160a01b0319166001600160a01b0392909216919091179055565b6123ff83838361260f565b611024576001600160a01b03831661242d57604051637e27328960e01b8152600481018290526024016109b2565b60405163177e802f60e01b81526001600160a01b0383166004820152602481018290526044016109b2565b7f9b779b17422d0df92223018b32b4d1fa46e071723d6817e2486d003becc55f005460020361125357604051633ee5aeb560e01b815260040160405180910390fd5b6124a48383612670565b611024335f858585612123565b5f8181526006602052604090208054606091906124cd90612fb1565b80601f01602080910402602001604051908101604052809291908181526020018280546124f990612fb1565b80156125445780601f1061251b57610100808354040283529160200191612544565b820191905f5260205f20905b81548152906001019060200180831161252757829003601f168201915b50505050509050919050565b606061255b82611d51565b505f61257160408051602081019091525f815290565b90505f81511161258f5760405180602001604052805f815250611003565b80612599846126d1565b6040516020016125aa9291906131e8565b6040516020818303038152906040529392505050565b5f6001600160e01b031982166380ac58cd60e01b14806125f057506001600160e01b03198216635b5e139f60e01b145b8061062b57506301ffc9a760e01b6001600160e01b031983161461062b565b5f6001600160a01b038316158015906122c45750826001600160a01b0316846001600160a01b0316148061264857506126488484611916565b806122c45750505f908152600460205260409020546001600160a01b03908116911614919050565b6001600160a01b03821661269957604051633250574960e11b81525f60048201526024016109b2565b5f6126a583835f611dc3565b90506001600160a01b03811615611024576040516339e3563760e11b81525f60048201526024016109b2565b60605f6126dd83612761565b60010190505f8167ffffffffffffffff8111156126fc576126fc612a34565b6040519080825280601f01601f191660200182016040528015612726576020820181803683370190505b5090508181016020015b5f19016f181899199a1a9b1b9c1cb0b131b232b360811b600a86061a8153600a850494508461273057509392505050565b5f8072184f03e93ff9f4daa797ed6e38ed64bf6a1f0160401b831061279f5772184f03e93ff9f4daa797ed6e38ed64bf6a1f0160401b830492506040015b6d04ee2d6d415b85acef810000000083106127cb576d04ee2d6d415b85acef8100000000830492506020015b662386f26fc1000083106127e957662386f26fc10000830492506010015b6305f5e1008310612801576305f5e100830492506008015b612710831061281557612710830492506004015b60648310612827576064830492506002015b600a831061062b5760010192915050565b6001600160e01b031981168114611c86575f80fd5b5f6020828403121561285d575f80fd5b813561100381612838565b5f5b8381101561288257818101518382015260200161286a565b50505f910152565b5f81518084526128a1816020860160208601612868565b601f01601f19169290920160200192915050565b602081525f611003602083018461288a565b5f602082840312156128d7575f80fd5b5035919050565b80356001600160a01b03811681146128f4575f80fd5b919050565b5f806040838503121561290a575f80fd5b612913836128de565b946020939093013593505050565b5f6101408083526129348184018e61288a565b90508281036020840152612948818d61288a565b9050828103604084015261295c818c61288a565b90508960608401528860808401528760a084015286151560c084015260018060a01b03861660e0840152846101008401528281036101208401526129a0818561288a565b9d9c50505050505050505050505050565b5f805f606084860312156129c3575f80fd5b6129cc846128de565b92506129da602085016128de565b9150604084013590509250925092565b5f80604083850312156129fb575f80fd5b50508035926020909101359150565b5f8060408385031215612a1b575f80fd5b82359150612a2b602084016128de565b90509250929050565b634e487b7160e01b5f52604160045260245ffd5b5f67ffffffffffffffff80841115612a6257612a62612a34565b604051601f8501601f19908116603f01168101908282118183101715612a8a57612a8a612a34565b81604052809350858152868686011115612aa2575f80fd5b858560208301375f602087830101525050509392505050565b5f82601f830112612aca575f80fd5b61100383833560208501612a48565b5f805f60608486031215612aeb575f80fd5b83359250602084013567ffffffffffffffff80821115612b09575f80fd5b612b1587838801612abb565b93506040860135915080821115612b2a575f80fd5b50612b3786828701612abb565b9150509250925092565b848152608060208201525f612b59608083018661288a565b6001600160a01b039490941660408301525090151560609091015292915050565b5f60208284031215612b8a575f80fd5b611003826128de565b602080825282518282018190525f9190848201906040850190845b81811015612bca57835183529284019291840191600101612bae565b50909695505050505050565b60208152815160208201525f602083015160806040840152612bfb60a084018261288a565b60408501516001600160a01b03166060858101919091529094015115156080909301929092525090919050565b5f8060408385031215612c39575f80fd5b612c42836128de565b915060208301358015158114612c56575f80fd5b809150509250929050565b5f805f8060808587031215612c74575f80fd5b612c7d856128de565b9350612c8b602086016128de565b925060408501359150606085013567ffffffffffffffff811115612cad575f80fd5b8501601f81018713612cbd575f80fd5b612ccc87823560208401612a48565b91505092959194509250565b5f60208083018184528085518083526040925060408601915060408160051b8701018488015f5b83811015612dde57603f1989840301855281516101608151855288820151818a870152612d2e8287018261288a565b9150508782015185820389870152612d46828261288a565b91505060608083015186830382880152612d60838261288a565b6080858101519089015260a0808601519089015260c0808601519089015260e080860151151590890152610100808601516001600160a01b031690890152610120808601519089015261014094850151888203958901959095529250612dca91508290508361288a565b968901969450505090860190600101612cff565b509098975050505050505050565b5f805f805f805f60e0888a031215612e02575f80fd5b873567ffffffffffffffff80821115612e19575f80fd5b612e258b838c01612abb565b985060208a0135915080821115612e3a575f80fd5b612e468b838c01612abb565b975060408a0135915080821115612e5b575f80fd5b612e678b838c01612abb565b965060608a0135955060808a0135945060a08a0135935060c08a0135915080821115612e91575f80fd5b50612e9e8a828b01612abb565b91505092959891949750929550565b5f8060408385031215612ebe575f80fd5b612ec7836128de565b9150612a2b602084016128de565b602081525f8251610140806020850152612ef361016085018361288a565b91506020850151601f1980868503016040870152612f11848361288a565b93506040870151915080868503016060870152612f2e848361288a565b935060608701516080870152608087015160a087015260a087015160c087015260c08701519150612f6360e087018315159052565b60e08701519150610100612f81818801846001600160a01b03169052565b87015161012087810191909152870151868503909101838701529050612fa7838261288a565b9695505050505050565b600181811c90821680612fc557607f821691505b602082108103612fe357634e487b7160e01b5f52602260045260245ffd5b50919050565b634e487b7160e01b5f52601160045260245ffd5b808202811582820484141761062b5761062b612fe9565b5f8261302e57634e487b7160e01b5f52601260045260245ffd5b500490565b5f6001820161304457613044612fe9565b5060010190565b601f82111561102457805f5260205f20601f840160051c810160208510156130705750805b601f840160051c820191505b81811015612244575f815560010161307c565b815167ffffffffffffffff8111156130a9576130a9612a34565b6130bd816130b78454612fb1565b8461304b565b602080601f8311600181146130f0575f84156130d95750858301515b5f19600386901b1c1916600185901b178555612242565b5f85815260208120601f198616915b8281101561311e578886015182559484019460019091019084016130ff565b508582101561313b57878501515f19600388901b60f8161c191681555b5050505050600190811b01905550565b8181038181111561062b5761062b612fe9565b634e487b7160e01b5f52603260045260245ffd5b604081525f613184604083018561288a565b905060018060a01b03831660208301529392505050565b6001600160a01b03858116825284166020820152604081018390526080606082018190525f90612fa79083018461288a565b5f602082840312156131dd575f80fd5b815161100381612838565b5f83516131f9818460208801612868565b83519083019061320d818360208801612868565b0194935050505056fea26469706673582212209ff4cbf17a5c6aa92e8a34551799167571fa773f356d212fae335043c1a8abb064736f6c63430008180033",
  "linkReferences": {},
  "deployedLinkReferences": {}
}